{
  "_format": "hh-sol-artifact-1",
  "contractName": "NftTest",
  "sourceName": "contracts/NftTest.sol",
  "abi": [
    {
      "inputs": [
        {
          "internalType": "string",
          "name": "name_",
          "type": "string"
        },
        {
          "internalType": "string",
          "name": "symbol_",
          "type": "string"
        },
        {
          "internalType": "string",
          "name": "_baseURI",
          "type": "string"
        }
      ],
      "stateMutability": "nonpayable",
      "type": "constructor"
    },
    {
      "anonymous": false,
      "inputs": [
        {
          "indexed": true,
          "internalType": "address",
          "name": "whitelistAddress",
          "type": "address"
        }
      ],
      "name": "AddedToWhiteList",
      "type": "event"
    },
    {
      "anonymous": false,
      "inputs": [
        {
          "indexed": true,
          "internalType": "address",
          "name": "owner",
          "type": "address"
        },
        {
          "indexed": true,
          "internalType": "address",
          "name": "approved",
          "type": "address"
        },
        {
          "indexed": true,
          "internalType": "uint256",
          "name": "tokenId",
          "type": "uint256"
        }
      ],
      "name": "Approval",
      "type": "event"
    },
    {
      "anonymous": false,
      "inputs": [
        {
          "indexed": true,
          "internalType": "address",
          "name": "owner",
          "type": "address"
        },
        {
          "indexed": true,
          "internalType": "address",
          "name": "operator",
          "type": "address"
        },
        {
          "indexed": false,
          "internalType": "bool",
          "name": "approved",
          "type": "bool"
        }
      ],
      "name": "ApprovalForAll",
      "type": "event"
    },
    {
      "anonymous": false,
      "inputs": [
        {
          "indexed": true,
          "internalType": "address",
          "name": "sender",
          "type": "address"
        },
        {
          "indexed": true,
          "internalType": "uint256",
          "name": "amount",
          "type": "uint256"
        }
      ],
      "name": "MintPublicSale",
      "type": "event"
    },
    {
      "anonymous": false,
      "inputs": [
        {
          "indexed": true,
          "internalType": "address",
          "name": "sender",
          "type": "address"
        },
        {
          "indexed": true,
          "internalType": "uint256",
          "name": "amount",
          "type": "uint256"
        }
      ],
      "name": "MintWhiteSale",
      "type": "event"
    },
    {
      "anonymous": false,
      "inputs": [
        {
          "indexed": true,
          "internalType": "address",
          "name": "previousOwner",
          "type": "address"
        },
        {
          "indexed": true,
          "internalType": "address",
          "name": "newOwner",
          "type": "address"
        }
      ],
      "name": "OwnershipTransferred",
      "type": "event"
    },
    {
      "anonymous": false,
      "inputs": [
        {
          "indexed": true,
          "internalType": "address",
          "name": "removedAddress",
          "type": "address"
        }
      ],
      "name": "RemovedFromWhiteList",
      "type": "event"
    },
    {
      "anonymous": false,
      "inputs": [
        {
          "indexed": true,
          "internalType": "bool",
          "name": "hasPublicSaleStarted",
          "type": "bool"
        },
        {
          "indexed": false,
          "internalType": "uint256",
          "name": "time",
          "type": "uint256"
        }
      ],
      "name": "SetPublicSaleActive",
      "type": "event"
    },
    {
      "anonymous": false,
      "inputs": [
        {
          "indexed": true,
          "internalType": "bool",
          "name": "whiteSaleActive",
          "type": "bool"
        },
        {
          "indexed": false,
          "internalType": "uint256",
          "name": "time",
          "type": "uint256"
        }
      ],
      "name": "SetWhiteSaleActive",
      "type": "event"
    },
    {
      "anonymous": false,
      "inputs": [
        {
          "indexed": true,
          "internalType": "address",
          "name": "from",
          "type": "address"
        },
        {
          "indexed": true,
          "internalType": "address",
          "name": "to",
          "type": "address"
        },
        {
          "indexed": true,
          "internalType": "uint256",
          "name": "tokenId",
          "type": "uint256"
        }
      ],
      "name": "Transfer",
      "type": "event"
    },
    {
      "anonymous": false,
      "inputs": [
        {
          "indexed": true,
          "internalType": "address",
          "name": "msgSender",
          "type": "address"
        },
        {
          "indexed": true,
          "internalType": "address",
          "name": "token",
          "type": "address"
        }
      ],
      "name": "Withdraw",
      "type": "event"
    },
    {
      "inputs": [],
      "name": "PublicMint",
      "outputs": [],
      "stateMutability": "payable",
      "type": "function"
    },
    {
      "inputs": [
        {
          "internalType": "address",
          "name": "minterWallet",
          "type": "address"
        }
      ],
      "name": "WhiteMint",
      "outputs": [],
      "stateMutability": "payable",
      "type": "function"
    },
    {
      "inputs": [
        {
          "internalType": "address[]",
          "name": "_addresses",
          "type": "address[]"
        }
      ],
      "name": "addAddressTowhitelistAddress",
      "outputs": [],
      "stateMutability": "nonpayable",
      "type": "function"
    },
    {
      "inputs": [
        {
          "internalType": "address",
          "name": "to",
          "type": "address"
        },
        {
          "internalType": "uint256",
          "name": "tokenId",
          "type": "uint256"
        }
      ],
      "name": "approve",
      "outputs": [],
      "stateMutability": "nonpayable",
      "type": "function"
    },
    {
      "inputs": [
        {
          "internalType": "address",
          "name": "owner",
          "type": "address"
        }
      ],
      "name": "balanceOf",
      "outputs": [
        {
          "internalType": "uint256",
          "name": "",
          "type": "uint256"
        }
      ],
      "stateMutability": "view",
      "type": "function"
    },
    {
      "inputs": [],
      "name": "baseExtension",
      "outputs": [
        {
          "internalType": "string",
          "name": "",
          "type": "string"
        }
      ],
      "stateMutability": "view",
      "type": "function"
    },
    {
      "inputs": [],
      "name": "burnEnabled",
      "outputs": [
        {
          "internalType": "bool",
          "name": "",
          "type": "bool"
        }
      ],
      "stateMutability": "view",
      "type": "function"
    },
    {
      "inputs": [],
      "name": "enableBurn",
      "outputs": [],
      "stateMutability": "nonpayable",
      "type": "function"
    },
    {
      "inputs": [
        {
          "internalType": "uint256",
          "name": "tokenId",
          "type": "uint256"
        }
      ],
      "name": "getApproved",
      "outputs": [
        {
          "internalType": "address",
          "name": "",
          "type": "address"
        }
      ],
      "stateMutability": "view",
      "type": "function"
    },
    {
      "inputs": [
        {
          "internalType": "address",
          "name": "owner",
          "type": "address"
        },
        {
          "internalType": "address",
          "name": "operator",
          "type": "address"
        }
      ],
      "name": "isApprovedForAll",
      "outputs": [
        {
          "internalType": "bool",
          "name": "",
          "type": "bool"
        }
      ],
      "stateMutability": "view",
      "type": "function"
    },
    {
      "inputs": [
        {
          "internalType": "address",
          "name": "",
          "type": "address"
        }
      ],
      "name": "isWhiteListed",
      "outputs": [
        {
          "internalType": "bool",
          "name": "",
          "type": "bool"
        }
      ],
      "stateMutability": "view",
      "type": "function"
    },
    {
      "inputs": [],
      "name": "maxMintPerWalletPublic",
      "outputs": [
        {
          "internalType": "uint256",
          "name": "",
          "type": "uint256"
        }
      ],
      "stateMutability": "view",
      "type": "function"
    },
    {
      "inputs": [],
      "name": "maxMintPerWalletWhite",
      "outputs": [
        {
          "internalType": "uint256",
          "name": "",
          "type": "uint256"
        }
      ],
      "stateMutability": "view",
      "type": "function"
    },
    {
      "inputs": [],
      "name": "maxSupply",
      "outputs": [
        {
          "internalType": "uint256",
          "name": "",
          "type": "uint256"
        }
      ],
      "stateMutability": "view",
      "type": "function"
    },
    {
      "inputs": [],
      "name": "maxTotalMintWhitelist",
      "outputs": [
        {
          "internalType": "uint256",
          "name": "",
          "type": "uint256"
        }
      ],
      "stateMutability": "view",
      "type": "function"
    },
    {
      "inputs": [],
      "name": "mintPricePublic",
      "outputs": [
        {
          "internalType": "uint256",
          "name": "",
          "type": "uint256"
        }
      ],
      "stateMutability": "view",
      "type": "function"
    },
    {
      "inputs": [],
      "name": "mintPriceWhitelist",
      "outputs": [
        {
          "internalType": "uint256",
          "name": "",
          "type": "uint256"
        }
      ],
      "stateMutability": "view",
      "type": "function"
    },
    {
      "inputs": [],
      "name": "name",
      "outputs": [
        {
          "internalType": "string",
          "name": "",
          "type": "string"
        }
      ],
      "stateMutability": "view",
      "type": "function"
    },
    {
      "inputs": [],
      "name": "owner",
      "outputs": [
        {
          "internalType": "address",
          "name": "",
          "type": "address"
        }
      ],
      "stateMutability": "view",
      "type": "function"
    },
    {
      "inputs": [
        {
          "internalType": "uint256",
          "name": "tokenId",
          "type": "uint256"
        }
      ],
      "name": "ownerOf",
      "outputs": [
        {
          "internalType": "address",
          "name": "",
          "type": "address"
        }
      ],
      "stateMutability": "view",
      "type": "function"
    },
    {
      "inputs": [],
      "name": "publicSaleActive",
      "outputs": [
        {
          "internalType": "bool",
          "name": "",
          "type": "bool"
        }
      ],
      "stateMutability": "view",
      "type": "function"
    },
    {
      "inputs": [
        {
          "internalType": "address",
          "name": "_address",
          "type": "address"
        }
      ],
      "name": "removeAddressFromWhitelist",
      "outputs": [],
      "stateMutability": "nonpayable",
      "type": "function"
    },
    {
      "inputs": [],
      "name": "renounceOwnership",
      "outputs": [],
      "stateMutability": "nonpayable",
      "type": "function"
    },
    {
      "inputs": [
        {
          "internalType": "address",
          "name": "from",
          "type": "address"
        },
        {
          "internalType": "address",
          "name": "to",
          "type": "address"
        },
        {
          "internalType": "uint256",
          "name": "tokenId",
          "type": "uint256"
        }
      ],
      "name": "safeTransferFrom",
      "outputs": [],
      "stateMutability": "nonpayable",
      "type": "function"
    },
    {
      "inputs": [
        {
          "internalType": "address",
          "name": "from",
          "type": "address"
        },
        {
          "internalType": "address",
          "name": "to",
          "type": "address"
        },
        {
          "internalType": "uint256",
          "name": "tokenId",
          "type": "uint256"
        },
        {
          "internalType": "bytes",
          "name": "_data",
          "type": "bytes"
        }
      ],
      "name": "safeTransferFrom",
      "outputs": [],
      "stateMutability": "nonpayable",
      "type": "function"
    },
    {
      "inputs": [
        {
          "internalType": "address",
          "name": "operator",
          "type": "address"
        },
        {
          "internalType": "bool",
          "name": "approved",
          "type": "bool"
        }
      ],
      "name": "setApprovalForAll",
      "outputs": [],
      "stateMutability": "nonpayable",
      "type": "function"
    },
    {
      "inputs": [
        {
          "internalType": "string",
          "name": "uri_",
          "type": "string"
        }
      ],
      "name": "setBaseUri",
      "outputs": [],
      "stateMutability": "nonpayable",
      "type": "function"
    },
    {
      "inputs": [
        {
          "internalType": "bool",
          "name": "isActive_",
          "type": "bool"
        }
      ],
      "name": "setPublicSaleActive",
      "outputs": [],
      "stateMutability": "nonpayable",
      "type": "function"
    },
    {
      "inputs": [
        {
          "internalType": "bool",
          "name": "isActive_",
          "type": "bool"
        }
      ],
      "name": "setWhiteSaleActive",
      "outputs": [],
      "stateMutability": "nonpayable",
      "type": "function"
    },
    {
      "inputs": [
        {
          "internalType": "bytes4",
          "name": "interfaceId",
          "type": "bytes4"
        }
      ],
      "name": "supportsInterface",
      "outputs": [
        {
          "internalType": "bool",
          "name": "",
          "type": "bool"
        }
      ],
      "stateMutability": "view",
      "type": "function"
    },
    {
      "inputs": [],
      "name": "symbol",
      "outputs": [
        {
          "internalType": "string",
          "name": "",
          "type": "string"
        }
      ],
      "stateMutability": "view",
      "type": "function"
    },
    {
      "inputs": [
        {
          "internalType": "uint256",
          "name": "index",
          "type": "uint256"
        }
      ],
      "name": "tokenByIndex",
      "outputs": [
        {
          "internalType": "uint256",
          "name": "",
          "type": "uint256"
        }
      ],
      "stateMutability": "view",
      "type": "function"
    },
    {
      "inputs": [
        {
          "internalType": "address",
          "name": "owner",
          "type": "address"
        },
        {
          "internalType": "uint256",
          "name": "index",
          "type": "uint256"
        }
      ],
      "name": "tokenOfOwnerByIndex",
      "outputs": [
        {
          "internalType": "uint256",
          "name": "",
          "type": "uint256"
        }
      ],
      "stateMutability": "view",
      "type": "function"
    },
    {
      "inputs": [
        {
          "internalType": "uint256",
          "name": "tokenId",
          "type": "uint256"
        }
      ],
      "name": "tokenURI",
      "outputs": [
        {
          "internalType": "string",
          "name": "",
          "type": "string"
        }
      ],
      "stateMutability": "view",
      "type": "function"
    },
    {
      "inputs": [],
      "name": "totalSupply",
      "outputs": [
        {
          "internalType": "uint256",
          "name": "",
          "type": "uint256"
        }
      ],
      "stateMutability": "view",
      "type": "function"
    },
    {
      "inputs": [
        {
          "internalType": "address",
          "name": "from",
          "type": "address"
        },
        {
          "internalType": "address",
          "name": "to",
          "type": "address"
        },
        {
          "internalType": "uint256",
          "name": "tokenId",
          "type": "uint256"
        }
      ],
      "name": "transferFrom",
      "outputs": [],
      "stateMutability": "nonpayable",
      "type": "function"
    },
    {
      "inputs": [
        {
          "internalType": "address",
          "name": "newOwner",
          "type": "address"
        }
      ],
      "name": "transferOwnership",
      "outputs": [],
      "stateMutability": "nonpayable",
      "type": "function"
    },
    {
      "inputs": [],
      "name": "uri",
      "outputs": [
        {
          "internalType": "string",
          "name": "",
          "type": "string"
        }
      ],
      "stateMutability": "view",
      "type": "function"
    },
    {
      "inputs": [
        {
          "internalType": "address",
          "name": "_whitelistedAddress",
          "type": "address"
        }
      ],
      "name": "verifyUser",
      "outputs": [
        {
          "internalType": "bool",
          "name": "",
          "type": "bool"
        }
      ],
      "stateMutability": "view",
      "type": "function"
    },
    {
      "inputs": [],
      "name": "whiteSaleActive",
      "outputs": [
        {
          "internalType": "bool",
          "name": "",
          "type": "bool"
        }
      ],
      "stateMutability": "view",
      "type": "function"
    },
    {
      "inputs": [
        {
          "internalType": "uint256",
          "name": "",
          "type": "uint256"
        }
      ],
      "name": "whitelistAddress",
      "outputs": [
        {
          "internalType": "address",
          "name": "",
          "type": "address"
        }
      ],
      "stateMutability": "view",
      "type": "function"
    },
    {
      "inputs": [],
      "name": "whitelistCount",
      "outputs": [
        {
          "internalType": "uint256",
          "name": "",
          "type": "uint256"
        }
      ],
      "stateMutability": "view",
      "type": "function"
    },
    {
      "inputs": [],
      "name": "withdraw",
      "outputs": [],
      "stateMutability": "payable",
      "type": "function"
    }
  ],
  "bytecode": "0x60806040526007601055600a6011556005601255600360135566470de4df820000601455662386f26fc100006015556040518060400160405280600581526020017f2e6a736f6e000000000000000000000000000000000000000000000000000000815250601790805190602001906200007b929190620002dd565b503480156200008957600080fd5b50604051620053d8380380620053d88339818101604052810190620000af91906200040b565b82828160009080519060200190620000c9929190620002dd565b508060019080519060200190620000e2929190620002dd565b50505062000105620000f96200013a60201b60201c565b6200014260201b60201c565b62000116816200020860201b60201c565b6000600c60026101000a81548160ff021916908315150217905550505050620006cb565b600033905090565b6000600a60009054906101000a900473ffffffffffffffffffffffffffffffffffffffff16905081600a60006101000a81548173ffffffffffffffffffffffffffffffffffffffff021916908373ffffffffffffffffffffffffffffffffffffffff1602179055508173ffffffffffffffffffffffffffffffffffffffff168173ffffffffffffffffffffffffffffffffffffffff167f8be0079c531659141344cd1fd0a4f28419497f9722a3daafe3b4186f6b6457e060405160405180910390a35050565b620002186200013a60201b60201c565b73ffffffffffffffffffffffffffffffffffffffff166200023e620002b360201b60201c565b73ffffffffffffffffffffffffffffffffffffffff161462000297576040517f08c379a00000000000000000000000000000000000000000000000000000000081526004016200028e90620004eb565b60405180910390fd5b8060169080519060200190620002af929190620002dd565b5050565b6000600a60009054906101000a900473ffffffffffffffffffffffffffffffffffffffff16905090565b828054620002eb90620005b3565b90600052602060002090601f0160209004810192826200030f57600085556200035b565b82601f106200032a57805160ff19168380011785556200035b565b828001600101855582156200035b579182015b828111156200035a5782518255916020019190600101906200033d565b5b5090506200036a91906200036e565b5090565b5b80821115620003895760008160009055506001016200036f565b5090565b6000620003a46200039e8462000536565b6200050d565b905082815260208101848484011115620003c357620003c262000682565b5b620003d08482856200057d565b509392505050565b600082601f830112620003f057620003ef6200067d565b5b8151620004028482602086016200038d565b91505092915050565b6000806000606084860312156200042757620004266200068c565b5b600084015167ffffffffffffffff81111562000448576200044762000687565b5b6200045686828701620003d8565b935050602084015167ffffffffffffffff8111156200047a576200047962000687565b5b6200048886828701620003d8565b925050604084015167ffffffffffffffff811115620004ac57620004ab62000687565b5b620004ba86828701620003d8565b9150509250925092565b6000620004d36020836200056c565b9150620004e082620006a2565b602082019050919050565b600060208201905081810360008301526200050681620004c4565b9050919050565b6000620005196200052c565b9050620005278282620005e9565b919050565b6000604051905090565b600067ffffffffffffffff8211156200055457620005536200064e565b5b6200055f8262000691565b9050602081019050919050565b600082825260208201905092915050565b60005b838110156200059d57808201518184015260208101905062000580565b83811115620005ad576000848401525b50505050565b60006002820490506001821680620005cc57607f821691505b60208210811415620005e357620005e26200061f565b5b50919050565b620005f48262000691565b810181811067ffffffffffffffff821117156200061657620006156200064e565b5b80604052505050565b7f4e487b7100000000000000000000000000000000000000000000000000000000600052602260045260246000fd5b7f4e487b7100000000000000000000000000000000000000000000000000000000600052604160045260246000fd5b600080fd5b600080fd5b600080fd5b600080fd5b6000601f19601f8301169050919050565b7f4f776e61626c653a2063616c6c6572206973206e6f7420746865206f776e6572600082015250565b614cfd80620006db6000396000f3fe60806040526004361061025c5760003560e01c80636f9170f611610144578063ce755616116100b6578063e2e06fa31161007a578063e2e06fa3146108e2578063e985e9c51461090b578063eac989f814610948578063f2624b5d14610973578063f2fde38b1461099e578063fe1881c4146109c75761025c565b8063ce7556161461080d578063cf9aed5d14610836578063d5abeb0114610861578063dbe65bfa1461088c578063e1fcd707146108b75761025c565b8063a0bcfc7f11610108578063a0bcfc7f146106ff578063a22cb46514610728578063b88d4fde14610751578063bc8893b41461077a578063c6682862146107a5578063c87b56dd146107d05761025c565b80636f9170f61461061857806370a0823114610655578063715018a6146106925780638da5cb5b146106a957806395d89b41146106d45761025c565b80632e7b26a7116101dd5780633fe7d355116101a15780633fe7d355146104e257806342842e0e1461050d5780634d813120146105365780634f6ccce7146105735780635dc96d16146105b05780636352211e146105db5761025c565b80632e7b26a71461043d5780632f745c591461046857806335c8e82d146104a55780633b37d1d6146104c15780633ccfd60b146104d85761025c565b80631c18a062116102245780631c18a0621461035a57806323b872dd14610385578063286dd3f5146103ae57806328a614b9146103d75780632c2a5928146104005761025c565b806301ffc9a71461026157806306fdde031461029e578063081812fc146102c9578063095ea7b31461030657806318160ddd1461032f575b600080fd5b34801561026d57600080fd5b506102886004803603810190610283919061371d565b6109d1565b6040516102959190613d85565b60405180910390f35b3480156102aa57600080fd5b506102b36109e3565b6040516102c09190613da0565b60405180910390f35b3480156102d557600080fd5b506102f060048036038101906102eb91906137c0565b610a75565b6040516102fd9190613d1e565b60405180910390f35b34801561031257600080fd5b5061032d60048036038101906103289190613667565b610afa565b005b34801561033b57600080fd5b50610344610c12565b6040516103519190614122565b60405180910390f35b34801561036657600080fd5b5061036f610c1f565b60405161037c9190614122565b60405180910390f35b34801561039157600080fd5b506103ac60048036038101906103a79190613551565b610c25565b005b3480156103ba57600080fd5b506103d560048036038101906103d091906134e4565b610c85565b005b3480156103e357600080fd5b506103fe60048036038101906103f991906136a7565b610e4a565b005b34801561040c57600080fd5b50610427600480360381019061042291906137c0565b611014565b6040516104349190613d1e565b60405180910390f35b34801561044957600080fd5b50610452611053565b60405161045f9190614122565b60405180910390f35b34801561047457600080fd5b5061048f600480360381019061048a9190613667565b611059565b60405161049c9190614122565b60405180910390f35b6104bf60048036038101906104ba91906134e4565b6110fe565b005b3480156104cd57600080fd5b506104d66112dd565b005b6104e0611376565b005b3480156104ee57600080fd5b506104f7611485565b6040516105049190613d85565b60405180910390f35b34801561051957600080fd5b50610534600480360381019061052f9190613551565b611498565b005b34801561054257600080fd5b5061055d600480360381019061055891906134e4565b6114b8565b60405161056a9190613d85565b60405180910390f35b34801561057f57600080fd5b5061059a600480360381019061059591906137c0565b611513565b6040516105a79190614122565b60405180910390f35b3480156105bc57600080fd5b506105c5611584565b6040516105d29190613d85565b60405180910390f35b3480156105e757600080fd5b5061060260048036038101906105fd91906137c0565b611597565b60405161060f9190613d1e565b60405180910390f35b34801561062457600080fd5b5061063f600480360381019061063a91906134e4565b611649565b60405161064c9190613d85565b60405180910390f35b34801561066157600080fd5b5061067c600480360381019061067791906134e4565b611669565b6040516106899190614122565b60405180910390f35b34801561069e57600080fd5b506106a7611721565b005b3480156106b557600080fd5b506106be6117a9565b6040516106cb9190613d1e565b60405180910390f35b3480156106e057600080fd5b506106e96117d3565b6040516106f69190613da0565b60405180910390f35b34801561070b57600080fd5b5061072660048036038101906107219190613777565b611865565b005b34801561073457600080fd5b5061074f600480360381019061074a9190613627565b6118fb565b005b34801561075d57600080fd5b50610778600480360381019061077391906135a4565b611911565b005b34801561078657600080fd5b5061078f611973565b60405161079c9190613d85565b60405180910390f35b3480156107b157600080fd5b506107ba611986565b6040516107c79190613da0565b60405180910390f35b3480156107dc57600080fd5b506107f760048036038101906107f291906137c0565b611a14565b6040516108049190613da0565b60405180910390f35b34801561081957600080fd5b50610834600480360381019061082f91906136f0565b611a93565b005b34801561084257600080fd5b5061084b611b66565b6040516108589190614122565b60405180910390f35b34801561086d57600080fd5b50610876611b6c565b6040516108839190614122565b60405180910390f35b34801561089857600080fd5b506108a1611b72565b6040516108ae9190614122565b60405180910390f35b3480156108c357600080fd5b506108cc611b78565b6040516108d99190614122565b60405180910390f35b3480156108ee57600080fd5b50610909600480360381019061090491906136f0565b611b7e565b005b34801561091757600080fd5b50610932600480360381019061092d9190613511565b611c87565b60405161093f9190613d85565b60405180910390f35b34801561095457600080fd5b5061095d611d1b565b60405161096a9190613da0565b60405180910390f35b34801561097f57600080fd5b50610988611da9565b6040516109959190614122565b60405180910390f35b3480156109aa57600080fd5b506109c560048036038101906109c091906134e4565b611daf565b005b6109cf611ea7565b005b60006109dc82611ff9565b9050919050565b6060600080546109f2906143e3565b80601f0160208091040260200160405190810160405280929190818152602001828054610a1e906143e3565b8015610a6b5780601f10610a4057610100808354040283529160200191610a6b565b820191906000526020600020905b815481529060010190602001808311610a4e57829003601f168201915b5050505050905090565b6000610a8082612073565b610abf576040517f08c379a0000000000000000000000000000000000000000000000000000000008152600401610ab690613fe2565b60405180910390fd5b6004600083815260200190815260200160002060009054906101000a900473ffffffffffffffffffffffffffffffffffffffff169050919050565b6000610b0582611597565b90508073ffffffffffffffffffffffffffffffffffffffff168373ffffffffffffffffffffffffffffffffffffffff161415610b76576040517f08c379a0000000000000000000000000000000000000000000000000000000008152600401610b6d90614062565b60405180910390fd5b8073ffffffffffffffffffffffffffffffffffffffff16610b956120df565b73ffffffffffffffffffffffffffffffffffffffff161480610bc45750610bc381610bbe6120df565b611c87565b5b610c03576040517f08c379a0000000000000000000000000000000000000000000000000000000008152600401610bfa90613f22565b60405180910390fd5b610c0d83836120e7565b505050565b6000600880549050905090565b60145481565b610c36610c306120df565b826121a0565b610c75576040517f08c379a0000000000000000000000000000000000000000000000000000000008152600401610c6c906140c2565b60405180910390fd5b610c8083838361227e565b505050565b610c8d6120df565b73ffffffffffffffffffffffffffffffffffffffff16610cab6117a9565b73ffffffffffffffffffffffffffffffffffffffff1614610d01576040517f08c379a0000000000000000000000000000000000000000000000000000000008152600401610cf890614002565b60405180910390fd5b60011515600f60008373ffffffffffffffffffffffffffffffffffffffff1673ffffffffffffffffffffffffffffffffffffffff16815260200190815260200160002060009054906101000a900460ff16151514610d94576040517f08c379a0000000000000000000000000000000000000000000000000000000008152600401610d8b90613ec2565b60405180910390fd5b6000600f60008373ffffffffffffffffffffffffffffffffffffffff1673ffffffffffffffffffffffffffffffffffffffff16815260200190815260200160002060006101000a81548160ff021916908315150217905550600d6000815480929190610dff906143b9565b91905055508073ffffffffffffffffffffffffffffffffffffffff167f9354cd337eebad48c93d70f7321b188732c3061fa5c48fe32b8e6f9480c52fcc60405160405180910390a250565b610e526120df565b73ffffffffffffffffffffffffffffffffffffffff16610e706117a9565b73ffffffffffffffffffffffffffffffffffffffff1614610ec6576040517f08c379a0000000000000000000000000000000000000000000000000000000008152600401610ebd90614002565b60405180910390fd5b6000815111610f0a576040517f08c379a0000000000000000000000000000000000000000000000000000000008152600401610f0190614042565b60405180910390fd5b60005b8151811015611010576001600f6000848481518110610f2f57610f2e61457c565b5b602002602001015173ffffffffffffffffffffffffffffffffffffffff1673ffffffffffffffffffffffffffffffffffffffff16815260200190815260200160002060006101000a81548160ff021916908315150217905550600d6000815480929190610f9b90614446565b9190505550818181518110610fb357610fb261457c565b5b602002602001015173ffffffffffffffffffffffffffffffffffffffff167f8a3be376fdc726be3f3cee8e59ba5698a268a9b59f69cdabcf06d2ec2c90658f60405160405180910390a2808061100890614446565b915050610f0d565b5050565b600e818154811061102457600080fd5b906000526020600020016000915054906101000a900473ffffffffffffffffffffffffffffffffffffffff1681565b60125481565b600061106483611669565b82106110a5576040517f08c379a000000000000000000000000000000000000000000000000000000000815260040161109c90613dc2565b60405180910390fd5b600660008473ffffffffffffffffffffffffffffffffffffffff1673ffffffffffffffffffffffffffffffffffffffff168152602001908152602001600020600083815260200190815260200160002054905092915050565b600c60009054906101000a900460ff1661114d576040517f08c379a000000000000000000000000000000000000000000000000000000000815260040161114490613e62565b60405180910390fd5b600f60008273ffffffffffffffffffffffffffffffffffffffff1673ffffffffffffffffffffffffffffffffffffffff16815260200190815260200160002060009054906101000a900460ff166111d9576040517f08c379a00000000000000000000000000000000000000000000000000000000081526004016111d090614082565b60405180910390fd5b60155434101561121e576040517f08c379a000000000000000000000000000000000000000000000000000000000815260040161121590613e02565b60405180910390fd5b60125461122a33611669565b1061126a576040517f08c379a000000000000000000000000000000000000000000000000000000000815260040161126190613f02565b60405180910390fd5b6000611276600b6124da565b905060105481106112bc576040517f08c379a00000000000000000000000000000000000000000000000000000000081526004016112b390613f82565b60405180910390fd5b6112c6600b6124e8565b6112d9336112d4600b6124da565b6124fe565b5050565b6112e56120df565b73ffffffffffffffffffffffffffffffffffffffff166113036117a9565b73ffffffffffffffffffffffffffffffffffffffff1614611359576040517f08c379a000000000000000000000000000000000000000000000000000000000815260040161135090614002565b60405180910390fd5b6001600c60026101000a81548160ff021916908315150217905550565b61137e6120df565b73ffffffffffffffffffffffffffffffffffffffff1661139c6117a9565b73ffffffffffffffffffffffffffffffffffffffff16146113f2576040517f08c379a00000000000000000000000000000000000000000000000000000000081526004016113e990614002565b60405180910390fd5b60004711611435576040517f08c379a000000000000000000000000000000000000000000000000000000000815260040161142c90613fc2565b60405180910390fd5b61143d6117a9565b73ffffffffffffffffffffffffffffffffffffffff166108fc479081150290604051600060405180830381858888f19350505050158015611482573d6000803e3d6000fd5b50565b600c60009054906101000a900460ff1681565b6114b383838360405180602001604052806000815250611911565b505050565b600080600f60008473ffffffffffffffffffffffffffffffffffffffff1673ffffffffffffffffffffffffffffffffffffffff16815260200190815260200160002060009054906101000a900460ff16905080915050919050565b600061151d610c12565b821061155e576040517f08c379a0000000000000000000000000000000000000000000000000000000008152600401611555906140e2565b60405180910390fd5b600882815481106115725761157161457c565b5b90600052602060002001549050919050565b600c60029054906101000a900460ff1681565b6000806002600084815260200190815260200160002060009054906101000a900473ffffffffffffffffffffffffffffffffffffffff169050600073ffffffffffffffffffffffffffffffffffffffff168173ffffffffffffffffffffffffffffffffffffffff161415611640576040517f08c379a000000000000000000000000000000000000000000000000000000000815260040161163790613f62565b60405180910390fd5b80915050919050565b600f6020528060005260406000206000915054906101000a900460ff1681565b60008073ffffffffffffffffffffffffffffffffffffffff168273ffffffffffffffffffffffffffffffffffffffff1614156116da576040517f08c379a00000000000000000000000000000000000000000000000000000000081526004016116d190613f42565b60405180910390fd5b600360008373ffffffffffffffffffffffffffffffffffffffff1673ffffffffffffffffffffffffffffffffffffffff168152602001908152602001600020549050919050565b6117296120df565b73ffffffffffffffffffffffffffffffffffffffff166117476117a9565b73ffffffffffffffffffffffffffffffffffffffff161461179d576040517f08c379a000000000000000000000000000000000000000000000000000000000815260040161179490614002565b60405180910390fd5b6117a7600061251c565b565b6000600a60009054906101000a900473ffffffffffffffffffffffffffffffffffffffff16905090565b6060600180546117e2906143e3565b80601f016020809104026020016040519081016040528092919081815260200182805461180e906143e3565b801561185b5780601f106118305761010080835404028352916020019161185b565b820191906000526020600020905b81548152906001019060200180831161183e57829003601f168201915b5050505050905090565b61186d6120df565b73ffffffffffffffffffffffffffffffffffffffff1661188b6117a9565b73ffffffffffffffffffffffffffffffffffffffff16146118e1576040517f08c379a00000000000000000000000000000000000000000000000000000000081526004016118d890614002565b60405180910390fd5b80601690805190602001906118f792919061325a565b5050565b61190d6119066120df565b83836125e2565b5050565b61192261191c6120df565b836121a0565b611961576040517f08c379a0000000000000000000000000000000000000000000000000000000008152600401611958906140c2565b60405180910390fd5b61196d8484848461274f565b50505050565b600c60019054906101000a900460ff1681565b60178054611993906143e3565b80601f01602080910402602001604051908101604052809291908181526020018280546119bf906143e3565b8015611a0c5780601f106119e157610100808354040283529160200191611a0c565b820191906000526020600020905b8154815290600101906020018083116119ef57829003601f168201915b505050505081565b6060611a1f82612073565b611a5e576040517f08c379a0000000000000000000000000000000000000000000000000000000008152600401611a5590614102565b60405180910390fd5b6016611a69836127ab565b6017604051602001611a7d93929190613ced565b6040516020818303038152906040529050919050565b611a9b6120df565b73ffffffffffffffffffffffffffffffffffffffff16611ab96117a9565b73ffffffffffffffffffffffffffffffffffffffff1614611b0f576040517f08c379a0000000000000000000000000000000000000000000000000000000008152600401611b0690614002565b60405180910390fd5b80600c60006101000a81548160ff0219169083151502179055508015157f5931a26aea03b2c0e9a12fcf8531853b1cae4d054ea224f50dc5c6558f605dd842604051611b5b9190614122565b60405180910390a250565b60115481565b60105481565b60155481565b60135481565b611b866120df565b73ffffffffffffffffffffffffffffffffffffffff16611ba46117a9565b73ffffffffffffffffffffffffffffffffffffffff1614611bfa576040517f08c379a0000000000000000000000000000000000000000000000000000000008152600401611bf190614002565b60405180910390fd5b80600c60016101000a81548160ff02191690831515021790555080611c2e57600c60009054906101000a900460ff16611c31565b60005b600c60006101000a81548160ff0219169083151502179055508015157feefd74a96b697ba815ef7742c94c6aa0230fb441881b4ad5608fadabb5a52a9642604051611c7c9190614122565b60405180910390a250565b6000600560008473ffffffffffffffffffffffffffffffffffffffff1673ffffffffffffffffffffffffffffffffffffffff16815260200190815260200160002060008373ffffffffffffffffffffffffffffffffffffffff1673ffffffffffffffffffffffffffffffffffffffff16815260200190815260200160002060009054906101000a900460ff16905092915050565b60168054611d28906143e3565b80601f0160208091040260200160405190810160405280929190818152602001828054611d54906143e3565b8015611da15780601f10611d7657610100808354040283529160200191611da1565b820191906000526020600020905b815481529060010190602001808311611d8457829003601f168201915b505050505081565b600d5481565b611db76120df565b73ffffffffffffffffffffffffffffffffffffffff16611dd56117a9565b73ffffffffffffffffffffffffffffffffffffffff1614611e2b576040517f08c379a0000000000000000000000000000000000000000000000000000000008152600401611e2290614002565b60405180910390fd5b600073ffffffffffffffffffffffffffffffffffffffff168173ffffffffffffffffffffffffffffffffffffffff161415611e9b576040517f08c379a0000000000000000000000000000000000000000000000000000000008152600401611e9290613e22565b60405180910390fd5b611ea48161251c565b50565b600c60019054906101000a900460ff16611ef6576040517f08c379a0000000000000000000000000000000000000000000000000000000008152600401611eed906140a2565b60405180910390fd5b601454341015611f3b576040517f08c379a0000000000000000000000000000000000000000000000000000000008152600401611f3290613e02565b60405180910390fd5b601354611f4733611669565b10611f87576040517f08c379a0000000000000000000000000000000000000000000000000000000008152600401611f7e90613f02565b60405180910390fd5b6000611f93600b6124da565b90506010548110611fd9576040517f08c379a0000000000000000000000000000000000000000000000000000000008152600401611fd090613f82565b60405180910390fd5b611fe3600b6124e8565b611ff633611ff1600b6124da565b6124fe565b50565b60007f780e9d63000000000000000000000000000000000000000000000000000000007bffffffffffffffffffffffffffffffffffffffffffffffffffffffff1916827bffffffffffffffffffffffffffffffffffffffffffffffffffffffff1916148061206c575061206b8261290c565b5b9050919050565b60008073ffffffffffffffffffffffffffffffffffffffff166002600084815260200190815260200160002060009054906101000a900473ffffffffffffffffffffffffffffffffffffffff1673ffffffffffffffffffffffffffffffffffffffff1614159050919050565b600033905090565b816004600083815260200190815260200160002060006101000a81548173ffffffffffffffffffffffffffffffffffffffff021916908373ffffffffffffffffffffffffffffffffffffffff160217905550808273ffffffffffffffffffffffffffffffffffffffff1661215a83611597565b73ffffffffffffffffffffffffffffffffffffffff167f8c5be1e5ebec7d5bd14f71427d1e84f3dd0314c0f7b2291e5b200ac8c7c3b92560405160405180910390a45050565b60006121ab82612073565b6121ea576040517f08c379a00000000000000000000000000000000000000000000000000000000081526004016121e190613ee2565b60405180910390fd5b60006121f583611597565b90508073ffffffffffffffffffffffffffffffffffffffff168473ffffffffffffffffffffffffffffffffffffffff16148061226457508373ffffffffffffffffffffffffffffffffffffffff1661224c84610a75565b73ffffffffffffffffffffffffffffffffffffffff16145b8061227557506122748185611c87565b5b91505092915050565b8273ffffffffffffffffffffffffffffffffffffffff1661229e82611597565b73ffffffffffffffffffffffffffffffffffffffff16146122f4576040517f08c379a00000000000000000000000000000000000000000000000000000000081526004016122eb90614022565b60405180910390fd5b600073ffffffffffffffffffffffffffffffffffffffff168273ffffffffffffffffffffffffffffffffffffffff161415612364576040517f08c379a000000000000000000000000000000000000000000000000000000000815260040161235b90613e82565b60405180910390fd5b61236f8383836129ee565b61237a6000826120e7565b6001600360008573ffffffffffffffffffffffffffffffffffffffff1673ffffffffffffffffffffffffffffffffffffffff16815260200190815260200160002060008282546123ca91906142cf565b925050819055506001600360008473ffffffffffffffffffffffffffffffffffffffff1673ffffffffffffffffffffffffffffffffffffffff16815260200190815260200160002060008282546124219190614248565b92505081905550816002600083815260200190815260200160002060006101000a81548173ffffffffffffffffffffffffffffffffffffffff021916908373ffffffffffffffffffffffffffffffffffffffff160217905550808273ffffffffffffffffffffffffffffffffffffffff168473ffffffffffffffffffffffffffffffffffffffff167fddf252ad1be2c89b69c2b068fc378daa952ba7f163c4a11628f55a4df523b3ef60405160405180910390a4505050565b600081600001549050919050565b6001816000016000828254019250508190555050565b6125188282604051806020016040528060008152506129fe565b5050565b6000600a60009054906101000a900473ffffffffffffffffffffffffffffffffffffffff16905081600a60006101000a81548173ffffffffffffffffffffffffffffffffffffffff021916908373ffffffffffffffffffffffffffffffffffffffff1602179055508173ffffffffffffffffffffffffffffffffffffffff168173ffffffffffffffffffffffffffffffffffffffff167f8be0079c531659141344cd1fd0a4f28419497f9722a3daafe3b4186f6b6457e060405160405180910390a35050565b8173ffffffffffffffffffffffffffffffffffffffff168373ffffffffffffffffffffffffffffffffffffffff161415612651576040517f08c379a000000000000000000000000000000000000000000000000000000000815260040161264890613ea2565b60405180910390fd5b80600560008573ffffffffffffffffffffffffffffffffffffffff1673ffffffffffffffffffffffffffffffffffffffff16815260200190815260200160002060008473ffffffffffffffffffffffffffffffffffffffff1673ffffffffffffffffffffffffffffffffffffffff16815260200190815260200160002060006101000a81548160ff0219169083151502179055508173ffffffffffffffffffffffffffffffffffffffff168373ffffffffffffffffffffffffffffffffffffffff167f17307eab39ab6107e8899845ad3d59bd9653f200f220920489ca2b5937696c31836040516127429190613d85565b60405180910390a3505050565b61275a84848461227e565b61276684848484612a59565b6127a5576040517f08c379a000000000000000000000000000000000000000000000000000000000815260040161279c90613de2565b60405180910390fd5b50505050565b606060008214156127f3576040518060400160405280600181526020017f30000000000000000000000000000000000000000000000000000000000000008152509050612907565b600082905060005b6000821461282557808061280e90614446565b915050600a8261281e919061429e565b91506127fb565b60008167ffffffffffffffff811115612841576128406145ab565b5b6040519080825280601f01601f1916602001820160405280156128735781602001600182028036833780820191505090505b5090505b600085146129005760018261288c91906142cf565b9150600a8561289b919061448f565b60306128a79190614248565b60f81b8183815181106128bd576128bc61457c565b5b60200101907effffffffffffffffffffffffffffffffffffffffffffffffffffffffffffff1916908160001a905350600a856128f9919061429e565b9450612877565b8093505050505b919050565b60007f80ac58cd000000000000000000000000000000000000000000000000000000007bffffffffffffffffffffffffffffffffffffffffffffffffffffffff1916827bffffffffffffffffffffffffffffffffffffffffffffffffffffffff191614806129d757507f5b5e139f000000000000000000000000000000000000000000000000000000007bffffffffffffffffffffffffffffffffffffffffffffffffffffffff1916827bffffffffffffffffffffffffffffffffffffffffffffffffffffffff1916145b806129e757506129e682612bf0565b5b9050919050565b6129f9838383612c5a565b505050565b612a088383612d6e565b612a156000848484612a59565b612a54576040517f08c379a0000000000000000000000000000000000000000000000000000000008152600401612a4b90613de2565b60405180910390fd5b505050565b6000612a7a8473ffffffffffffffffffffffffffffffffffffffff16612f3c565b15612be3578373ffffffffffffffffffffffffffffffffffffffff1663150b7a02612aa36120df565b8786866040518563ffffffff1660e01b8152600401612ac59493929190613d39565b602060405180830381600087803b158015612adf57600080fd5b505af1925050508015612b1057506040513d601f19601f82011682018060405250810190612b0d919061374a565b60015b612b93573d8060008114612b40576040519150601f19603f3d011682016040523d82523d6000602084013e612b45565b606091505b50600081511415612b8b576040517f08c379a0000000000000000000000000000000000000000000000000000000008152600401612b8290613de2565b60405180910390fd5b805181602001fd5b63150b7a0260e01b7bffffffffffffffffffffffffffffffffffffffffffffffffffffffff1916817bffffffffffffffffffffffffffffffffffffffffffffffffffffffff191614915050612be8565b600190505b949350505050565b60007f01ffc9a7000000000000000000000000000000000000000000000000000000007bffffffffffffffffffffffffffffffffffffffffffffffffffffffff1916827bffffffffffffffffffffffffffffffffffffffffffffffffffffffff1916149050919050565b612c65838383612f4f565b600073ffffffffffffffffffffffffffffffffffffffff168373ffffffffffffffffffffffffffffffffffffffff161415612ca857612ca381612f54565b612ce7565b8173ffffffffffffffffffffffffffffffffffffffff168373ffffffffffffffffffffffffffffffffffffffff1614612ce657612ce58382612f9d565b5b5b600073ffffffffffffffffffffffffffffffffffffffff168273ffffffffffffffffffffffffffffffffffffffff161415612d2a57612d258161310a565b612d69565b8273ffffffffffffffffffffffffffffffffffffffff168273ffffffffffffffffffffffffffffffffffffffff1614612d6857612d6782826131db565b5b5b505050565b600073ffffffffffffffffffffffffffffffffffffffff168273ffffffffffffffffffffffffffffffffffffffff161415612dde576040517f08c379a0000000000000000000000000000000000000000000000000000000008152600401612dd590613fa2565b60405180910390fd5b612de781612073565b15612e27576040517f08c379a0000000000000000000000000000000000000000000000000000000008152600401612e1e90613e42565b60405180910390fd5b612e33600083836129ee565b6001600360008473ffffffffffffffffffffffffffffffffffffffff1673ffffffffffffffffffffffffffffffffffffffff1681526020019081526020016000206000828254612e839190614248565b92505081905550816002600083815260200190815260200160002060006101000a81548173ffffffffffffffffffffffffffffffffffffffff021916908373ffffffffffffffffffffffffffffffffffffffff160217905550808273ffffffffffffffffffffffffffffffffffffffff16600073ffffffffffffffffffffffffffffffffffffffff167fddf252ad1be2c89b69c2b068fc378daa952ba7f163c4a11628f55a4df523b3ef60405160405180910390a45050565b600080823b905060008111915050919050565b505050565b6008805490506009600083815260200190815260200160002081905550600881908060018154018082558091505060019003906000526020600020016000909190919091505550565b60006001612faa84611669565b612fb491906142cf565b9050600060076000848152602001908152602001600020549050818114613099576000600660008673ffffffffffffffffffffffffffffffffffffffff1673ffffffffffffffffffffffffffffffffffffffff168152602001908152602001600020600084815260200190815260200160002054905080600660008773ffffffffffffffffffffffffffffffffffffffff1673ffffffffffffffffffffffffffffffffffffffff168152602001908152602001600020600084815260200190815260200160002081905550816007600083815260200190815260200160002081905550505b6007600084815260200190815260200160002060009055600660008573ffffffffffffffffffffffffffffffffffffffff1673ffffffffffffffffffffffffffffffffffffffff16815260200190815260200160002060008381526020019081526020016000206000905550505050565b6000600160088054905061311e91906142cf565b905060006009600084815260200190815260200160002054905060006008838154811061314e5761314d61457c565b5b9060005260206000200154905080600883815481106131705761316f61457c565b5b9060005260206000200181905550816009600083815260200190815260200160002081905550600960008581526020019081526020016000206000905560088054806131bf576131be61454d565b5b6001900381819060005260206000200160009055905550505050565b60006131e683611669565b905081600660008573ffffffffffffffffffffffffffffffffffffffff1673ffffffffffffffffffffffffffffffffffffffff168152602001908152602001600020600083815260200190815260200160002081905550806007600084815260200190815260200160002081905550505050565b828054613266906143e3565b90600052602060002090601f01602090048101928261328857600085556132cf565b82601f106132a157805160ff19168380011785556132cf565b828001600101855582156132cf579182015b828111156132ce5782518255916020019190600101906132b3565b5b5090506132dc91906132e0565b5090565b5b808211156132f95760008160009055506001016132e1565b5090565b600061331061330b84614162565b61413d565b90508083825260208201905082856020860282011115613333576133326145df565b5b60005b85811015613363578161334988826133f1565b845260208401935060208301925050600181019050613336565b5050509392505050565b600061338061337b8461418e565b61413d565b90508281526020810184848401111561339c5761339b6145e4565b5b6133a7848285614377565b509392505050565b60006133c26133bd846141bf565b61413d565b9050828152602081018484840111156133de576133dd6145e4565b5b6133e9848285614377565b509392505050565b60008135905061340081614c6b565b92915050565b600082601f83011261341b5761341a6145da565b5b813561342b8482602086016132fd565b91505092915050565b60008135905061344381614c82565b92915050565b60008135905061345881614c99565b92915050565b60008151905061346d81614c99565b92915050565b600082601f830112613488576134876145da565b5b813561349884826020860161336d565b91505092915050565b600082601f8301126134b6576134b56145da565b5b81356134c68482602086016133af565b91505092915050565b6000813590506134de81614cb0565b92915050565b6000602082840312156134fa576134f96145ee565b5b6000613508848285016133f1565b91505092915050565b60008060408385031215613528576135276145ee565b5b6000613536858286016133f1565b9250506020613547858286016133f1565b9150509250929050565b60008060006060848603121561356a576135696145ee565b5b6000613578868287016133f1565b9350506020613589868287016133f1565b925050604061359a868287016134cf565b9150509250925092565b600080600080608085870312156135be576135bd6145ee565b5b60006135cc878288016133f1565b94505060206135dd878288016133f1565b93505060406135ee878288016134cf565b925050606085013567ffffffffffffffff81111561360f5761360e6145e9565b5b61361b87828801613473565b91505092959194509250565b6000806040838503121561363e5761363d6145ee565b5b600061364c858286016133f1565b925050602061365d85828601613434565b9150509250929050565b6000806040838503121561367e5761367d6145ee565b5b600061368c858286016133f1565b925050602061369d858286016134cf565b9150509250929050565b6000602082840312156136bd576136bc6145ee565b5b600082013567ffffffffffffffff8111156136db576136da6145e9565b5b6136e784828501613406565b91505092915050565b600060208284031215613706576137056145ee565b5b600061371484828501613434565b91505092915050565b600060208284031215613733576137326145ee565b5b600061374184828501613449565b91505092915050565b6000602082840312156137605761375f6145ee565b5b600061376e8482850161345e565b91505092915050565b60006020828403121561378d5761378c6145ee565b5b600082013567ffffffffffffffff8111156137ab576137aa6145e9565b5b6137b7848285016134a1565b91505092915050565b6000602082840312156137d6576137d56145ee565b5b60006137e4848285016134cf565b91505092915050565b6137f681614303565b82525050565b61380581614315565b82525050565b600061381682614205565b613820818561421b565b9350613830818560208601614386565b613839816145f3565b840191505092915050565b600061384f82614210565b613859818561422c565b9350613869818560208601614386565b613872816145f3565b840191505092915050565b600061388882614210565b613892818561423d565b93506138a2818560208601614386565b80840191505092915050565b600081546138bb816143e3565b6138c5818661423d565b945060018216600081146138e057600181146138f157613924565b60ff19831686528186019350613924565b6138fa856141f0565b60005b8381101561391c578154818901526001820191506020810190506138fd565b838801955050505b50505092915050565b600061393a602b8361422c565b915061394582614604565b604082019050919050565b600061395d60328361422c565b915061396882614653565b604082019050919050565b600061398060118361422c565b915061398b826146a2565b602082019050919050565b60006139a360268361422c565b91506139ae826146cb565b604082019050919050565b60006139c6601c8361422c565b91506139d18261471a565b602082019050919050565b60006139e960178361422c565b91506139f482614743565b602082019050919050565b6000613a0c60248361422c565b9150613a178261476c565b604082019050919050565b6000613a2f60198361422c565b9150613a3a826147bb565b602082019050919050565b6000613a52601a8361422c565b9150613a5d826147e4565b602082019050919050565b6000613a75602c8361422c565b9150613a808261480d565b604082019050919050565b6000613a98601b8361422c565b9150613aa38261485c565b602082019050919050565b6000613abb60388361422c565b9150613ac682614885565b604082019050919050565b6000613ade602a8361422c565b9150613ae9826148d4565b604082019050919050565b6000613b0160298361422c565b9150613b0c82614923565b604082019050919050565b6000613b24601e8361422c565b9150613b2f82614972565b602082019050919050565b6000613b4760208361422c565b9150613b528261499b565b602082019050919050565b6000613b6a600c8361422c565b9150613b75826149c4565b602082019050919050565b6000613b8d602c8361422c565b9150613b98826149ed565b604082019050919050565b6000613bb060208361422c565b9150613bbb82614a3c565b602082019050919050565b6000613bd360298361422c565b9150613bde82614a65565b604082019050919050565b6000613bf6600c8361422c565b9150613c0182614ab4565b602082019050919050565b6000613c1960218361422c565b9150613c2482614add565b604082019050919050565b6000613c3c601a8361422c565b9150613c4782614b2c565b602082019050919050565b6000613c5f60148361422c565b9150613c6a82614b55565b602082019050919050565b6000613c8260318361422c565b9150613c8d82614b7e565b604082019050919050565b6000613ca5602c8361422c565b9150613cb082614bcd565b604082019050919050565b6000613cc860308361422c565b9150613cd382614c1c565b604082019050919050565b613ce78161436d565b82525050565b6000613cf982866138ae565b9150613d05828561387d565b9150613d1182846138ae565b9150819050949350505050565b6000602082019050613d3360008301846137ed565b92915050565b6000608082019050613d4e60008301876137ed565b613d5b60208301866137ed565b613d686040830185613cde565b8181036060830152613d7a818461380b565b905095945050505050565b6000602082019050613d9a60008301846137fc565b92915050565b60006020820190508181036000830152613dba8184613844565b905092915050565b60006020820190508181036000830152613ddb8161392d565b9050919050565b60006020820190508181036000830152613dfb81613950565b9050919050565b60006020820190508181036000830152613e1b81613973565b9050919050565b60006020820190508181036000830152613e3b81613996565b9050919050565b60006020820190508181036000830152613e5b816139b9565b9050919050565b60006020820190508181036000830152613e7b816139dc565b9050919050565b60006020820190508181036000830152613e9b816139ff565b9050919050565b60006020820190508181036000830152613ebb81613a22565b9050919050565b60006020820190508181036000830152613edb81613a45565b9050919050565b60006020820190508181036000830152613efb81613a68565b9050919050565b60006020820190508181036000830152613f1b81613a8b565b9050919050565b60006020820190508181036000830152613f3b81613aae565b9050919050565b60006020820190508181036000830152613f5b81613ad1565b9050919050565b60006020820190508181036000830152613f7b81613af4565b9050919050565b60006020820190508181036000830152613f9b81613b17565b9050919050565b60006020820190508181036000830152613fbb81613b3a565b9050919050565b60006020820190508181036000830152613fdb81613b5d565b9050919050565b60006020820190508181036000830152613ffb81613b80565b9050919050565b6000602082019050818103600083015261401b81613ba3565b9050919050565b6000602082019050818103600083015261403b81613bc6565b9050919050565b6000602082019050818103600083015261405b81613be9565b9050919050565b6000602082019050818103600083015261407b81613c0c565b9050919050565b6000602082019050818103600083015261409b81613c2f565b9050919050565b600060208201905081810360008301526140bb81613c52565b9050919050565b600060208201905081810360008301526140db81613c75565b9050919050565b600060208201905081810360008301526140fb81613c98565b9050919050565b6000602082019050818103600083015261411b81613cbb565b9050919050565b60006020820190506141376000830184613cde565b92915050565b6000614147614158565b90506141538282614415565b919050565b6000604051905090565b600067ffffffffffffffff82111561417d5761417c6145ab565b5b602082029050602081019050919050565b600067ffffffffffffffff8211156141a9576141a86145ab565b5b6141b2826145f3565b9050602081019050919050565b600067ffffffffffffffff8211156141da576141d96145ab565b5b6141e3826145f3565b9050602081019050919050565b60008190508160005260206000209050919050565b600081519050919050565b600081519050919050565b600082825260208201905092915050565b600082825260208201905092915050565b600081905092915050565b60006142538261436d565b915061425e8361436d565b9250827fffffffffffffffffffffffffffffffffffffffffffffffffffffffffffffffff03821115614293576142926144c0565b5b828201905092915050565b60006142a98261436d565b91506142b48361436d565b9250826142c4576142c36144ef565b5b828204905092915050565b60006142da8261436d565b91506142e58361436d565b9250828210156142f8576142f76144c0565b5b828203905092915050565b600061430e8261434d565b9050919050565b60008115159050919050565b60007fffffffff0000000000000000000000000000000000000000000000000000000082169050919050565b600073ffffffffffffffffffffffffffffffffffffffff82169050919050565b6000819050919050565b82818337600083830152505050565b60005b838110156143a4578082015181840152602081019050614389565b838111156143b3576000848401525b50505050565b60006143c48261436d565b915060008214156143d8576143d76144c0565b5b600182039050919050565b600060028204905060018216806143fb57607f821691505b6020821081141561440f5761440e61451e565b5b50919050565b61441e826145f3565b810181811067ffffffffffffffff8211171561443d5761443c6145ab565b5b80604052505050565b60006144518261436d565b91507fffffffffffffffffffffffffffffffffffffffffffffffffffffffffffffffff821415614484576144836144c0565b5b600182019050919050565b600061449a8261436d565b91506144a58361436d565b9250826144b5576144b46144ef565b5b828206905092915050565b7f4e487b7100000000000000000000000000000000000000000000000000000000600052601160045260246000fd5b7f4e487b7100000000000000000000000000000000000000000000000000000000600052601260045260246000fd5b7f4e487b7100000000000000000000000000000000000000000000000000000000600052602260045260246000fd5b7f4e487b7100000000000000000000000000000000000000000000000000000000600052603160045260246000fd5b7f4e487b7100000000000000000000000000000000000000000000000000000000600052603260045260246000fd5b7f4e487b7100000000000000000000000000000000000000000000000000000000600052604160045260246000fd5b600080fd5b600080fd5b600080fd5b600080fd5b600080fd5b6000601f19601f8301169050919050565b7f455243373231456e756d657261626c653a206f776e657220696e646578206f7560008201527f74206f6620626f756e6473000000000000000000000000000000000000000000602082015250565b7f4552433732313a207472616e7366657220746f206e6f6e20455243373231526560008201527f63656976657220696d706c656d656e7465720000000000000000000000000000602082015250565b7f696e737566696369656e7420666f6e6473000000000000000000000000000000600082015250565b7f4f776e61626c653a206e6577206f776e657220697320746865207a65726f206160008201527f6464726573730000000000000000000000000000000000000000000000000000602082015250565b7f4552433732313a20746f6b656e20616c7265616479206d696e74656400000000600082015250565b7f57686974656c697374206d696e742064697361626c6564000000000000000000600082015250565b7f4552433732313a207472616e7366657220746f20746865207a65726f2061646460008201527f7265737300000000000000000000000000000000000000000000000000000000602082015250565b7f4552433732313a20617070726f766520746f2063616c6c657200000000000000600082015250565b7f41646472657373206973206e6f742077686974656c6973746564000000000000600082015250565b7f4552433732313a206f70657261746f7220717565727920666f72206e6f6e657860008201527f697374656e7420746f6b656e0000000000000000000000000000000000000000602082015250565b7f4d6178206d696e74207065722077616c6c657420726561636865640000000000600082015250565b7f4552433732313a20617070726f76652063616c6c6572206973206e6f74206f7760008201527f6e6572206e6f7220617070726f76656420666f7220616c6c0000000000000000602082015250565b7f4552433732313a2062616c616e636520717565727920666f7220746865207a6560008201527f726f206164647265737300000000000000000000000000000000000000000000602082015250565b7f4552433732313a206f776e657220717565727920666f72206e6f6e657869737460008201527f656e7420746f6b656e0000000000000000000000000000000000000000000000602082015250565b7f63616e74206d696e74206d6f6e72652c206c696d697420726561636865640000600082015250565b7f4552433732313a206d696e7420746f20746865207a65726f2061646472657373600082015250565b7f42616c616e636520697320300000000000000000000000000000000000000000600082015250565b7f4552433732313a20617070726f76656420717565727920666f72206e6f6e657860008201527f697374656e7420746f6b656e0000000000000000000000000000000000000000602082015250565b7f4f776e61626c653a2063616c6c6572206973206e6f7420746865206f776e6572600082015250565b7f4552433732313a207472616e73666572206f6620746f6b656e2074686174206960008201527f73206e6f74206f776e0000000000000000000000000000000000000000000000602082015250565b7f4e6f206164647265737365730000000000000000000000000000000000000000600082015250565b7f4552433732313a20617070726f76616c20746f2063757272656e74206f776e6560008201527f7200000000000000000000000000000000000000000000000000000000000000602082015250565b7f596f75206e65656420746f2062652077686974656c6973746564000000000000600082015250565b7f5075626c6963206d696e742064697361626c6564000000000000000000000000600082015250565b7f4552433732313a207472616e736665722063616c6c6572206973206e6f74206f60008201527f776e6572206e6f7220617070726f766564000000000000000000000000000000602082015250565b7f455243373231456e756d657261626c653a20676c6f62616c20696e646578206f60008201527f7574206f6620626f756e64730000000000000000000000000000000000000000602082015250565b7f455243373231204d657461646174613a2055524920717565727920666f72206e60008201527f6f6e6578697374656e7420746f6b656e00000000000000000000000000000000602082015250565b614c7481614303565b8114614c7f57600080fd5b50565b614c8b81614315565b8114614c9657600080fd5b50565b614ca281614321565b8114614cad57600080fd5b50565b614cb98161436d565b8114614cc457600080fd5b5056fea26469706673582212200924f48d05c97ff81ae8fe65074a64b02a346ec64e06a4b7757606d60fca067364736f6c63430008060033",
  "linkReferences": {},
  "deployedLinkReferences": {}
}